:1000000000308A00BB28000042080739F700420C84
:10001000F800F80CF80C1F30F80578084407840045
:10002000831345188317F801F80AF70A1828F80D02
:10003000F70B1728C3080319202878088004232801
:10004000F80978088005080041308400831300080F
:10005000031938280130F800F701F70B2D28F80BA9
:100060002C284A30F700F70B33283628800B2A2833
:10007000080042080739F700420CF800F80CF80CA9
:100080001F30F8057808430784008313441883174A
:100090000008F800F70A4D28F80CF70B4C28080068
:1000A000F701F801430803104418F707F70CF80CA0
:1000B000C418F707F70CF80C4419F707F70CF80CFD
:1000C000C419F707F70CF80C441AF707F70CF80CEB
:1000D000C41AF707F70CF80C441BF707F70CF80CD9
:1000E000C41BF707F70CF80C8A110A125A294208A8
:1000F000FA004108840083137A1883170008C500AA
:100100004408FA004308840083137A188317000810
:100110004502031DA2284208FA0041088400831307
:100120007A1883178008031D98280030F800BA2831
:100130004208FA004108C10A0319C20AC30A031996
:10014000C40A77284208FA00410884008313421841
:1001500083170008C5004408FA004308840083138D
:1001600044188317000845020318B828FF30B9283F
:100170000130F800080003081F39830083160317B5
:100180008711193003139900A6309800903083121C
:1001900098002B30A200B201831603170908C0395A
:1001A000890003131F129F12003003178800831267
:1001B00087018801890183130313A001A101313054
:1001C000A8003230A9003330AA003430AB00AC01B3
:1001D000AD003330AE003230AF003130B000B1018D
:1001E000B3003230B4003330B5003430B6003530AF
:1001F000B7003630B8003730B9003830BA0039307F
:10020000BB002A30BC003030BD002330BE00F030CF
:10021000831688008312BF013F08033C031C6D292D
:10022000880140303F07C100C2000130C300C50152
:10023000C40104204108C200C301C5018030C400CC
:1002400004200A30C1002420C0014008023C031CE5
:100250006B2944304007C100C2000130C300C50112
:100260008030C40004204108C200C401C301392009
:10027000781C692944304007C100C2000130C30026
:10028000C5018030C40004204108C200C401C3017C
:10029000392078183A2923303207F800FA01031878
:1002A000FA0A7808C1007A08C2003F08C300033088
:1002B000C400502840087807333E840083130008A8
:1002C000C300410884008313421883174308800049
:1002D000B20AC00A2529BF0A0C293208043C031DB2
:1002E0009A29C2012330C100C4012830C3007720FD
:1002F000F808031D82292B30A20022080C1E7E293B
:1003000099009929C2012330C100C4012D30C300D6
:100310007720F808031D93292A30A20022080C1E1A
:100320008F29990099292E30A20022080C1E9629A7
:0E0330009900B2016430C10024200B29630043
:04400E00F22C000789
:00000001FF
;PIC16F887
;CRC=9883  CREATED="02-Oca-25 10:52"
