:1000000003308A00712B0000FF00030E8301A10062
:100010000A08A0008A010408A2007708A300780853
:10002000A4007908A5007A08A60003170D08031399
:10003000A70003170F080313A80003170C080313E6
:10004000A90003170E080313AA00831383128B1E43
:100050002B280B194C28220884002308F7002408B9
:10006000F8002508F9002608FA00270803178D0074
:100070000313280803178F000313290803178C00A4
:1000800003132A0803178E00031320088A00210E89
:100090008300FF0E7F0E09008A110A124F28AB0A57
:1000A0000319AC0A2D082B02031D5F282E082C0211
:1000B000031D5F28013086068B12AC01AB010B11CA
:1000C0000B118A110A122B288C20C421201DA0128A
:1000D000EC3A00008A246E32653CBD1264004A305E
:1000E000840083130008031983280130F800F70106
:1000F000F70B7828F80B77284A30F700F70B7E28A3
:100100008128800B75280800510EF039F7000F3058
:10011000080577048800000008148E2808100800DD
:100120000808F700080E0F39F800080083160810B9
:1001300088100811831288100F3083160805F038D4
:100140008800831208150000081400009020780829
:10015000D100081000000814000090207808D0009A
:1001600008100F308316080588008312510EF7001F
:10017000F030F70577085004F8007808D000D01B5D
:100180009C284E1C88104E1888140000081100008E
:1001900008104F0ED0000F30D0055008D100842039
:1001A0004F080F39D000D100842008002830C1004A
:1001B0000C30C2000130C3000630C40008108810A3
:1001C00008110F30831608058800081088100811E0
:1001D0000F308312CA006F200130C0004008033C7A
:1001E000031CFA280330D10084200530CA006F2098
:1001F000C00AEE280230D10084200530CA006F20EA
:10020000C0014008033C031C112941304007840011
:1002100083130008C500CE014508CF009620C00A10
:1002200001298A110A12AD2B1030C400F701FA011E
:10023000C10CC00C031C22294208F7070318FA0A54
:100240004308FA07FA0CF70CF90CF80CC40B182940
:100250008A110A12E32BF801F901F701FA014508A6
:10026000031D3529440803194F291030C600031017
:10027000C20DC30DF70DFA0D45087A02031D422980
:1002800044087702031C4B294408F702031CFA03B5
:100290004508FA020314F80DF90DC60B37298A1127
:1002A0000A12F02B4B0B552958294030CC00592904
:1002B000CC0101304A02CC074C088038CD00CE0179
:1002C0004D08CF00962008004908073A0319722903
:1002D0000B3A03197729063A03197F29023A0319C1
:1002E00085298A290130CA00CB0052218F29CE01ED
:1002F0000130CF0096200230CA006F208F290130D4
:10030000CA000230CB0052218F29CE011030CF001D
:1003100096208F290130CE004908CF009620080092
:100320000B08C1008B13831603178C170C140000E5
:10033000000083120313C11B8B170318C72903176F
:100340000C087F390313C10003170D080313C20003
:1003500003170F080313C3004108C90064214208B2
:1003600003178D000313430803178F0003130B08B3
:10037000C4008B13831603178C170C1400000000A5
:1003800083120313C41B8B17C00BC729E62903175D
:100390000C0D0E0D7F390313C10003170D08031355
:1003A000C20003170F080313C3004108C9006421EA
:1003B000420803178D000313430803178F008D0AAB
:1003C00003198F0A03100313C00B90290800C801FA
:1003D0000408C7004810831B4814410EF038C300BE
:1003E000C307E23EC400323EC60041080F39C407CD
:1003F000C407C607E93EC500C507C507400E0F394B
:10040000C507C607C50DC60DC609C60D40080F397C
:10041000C607C30D0730C2000A30C607C503031C58
:100420000D2AC507C403031C112AC407C303031CF8
:10043000152AC307C203031C192A42308400831300
:10044000073047054713840746300402031947174E
:100450000008F700031D342A471B342A471A462A8E
:10046000C719342A2030372AC71547123030F7070A
:10047000C1010408C0004110831B41147708C90062
:10048000642140088400831341188317840A471F9E
:10049000242A8A110A12102C4708F8014602031870
:1004A000542A4608F700602AF7010830C800C60D34
:1004B000F70D470877020318F700F80DC80B572A05
:1004C00008002030411E3030C2004008F700C01F35
:1004D000712AF709F70A7708C0002D30C200C1174A
:1004E00041144008C6006430C7004C227708C000A1
:1004F00030307807C3004008C6000A30C7004C22DD
:1005000030307707C50030307807C4004208F70064
:10051000303043020319902AC114C11B4115A42A8B
:100520004208C3002030C2003030440203199C2A24
:100530004114C11BC114A42A031D4114031DA42A84
:100540004308C4002030C3004119AB2AC118AE2AA9
:100550004118B12AB42A4208C90064214308C900DD
:1005600064214408C90064214508C90064218A1136
:100570000A12222C8E30F7004208F8004108F900D8
:10058000FA01F808031DCE2A7908F800F9010830AD
:10059000F702F808031DCE2AF701D62A0310F81B2C
:1005A000D52AF90DF80DF703CE2AF8138A110A128D
:1005B000402C41080319492BC90045080319492B50
:1005C000C9070318EA2A7F30C902031C492B031903
:1005D000492BEE2A8130C9070318492B4908F70037
:1005E000F801F901FA014208CD00CD174308CC000B
:1005F0004408CB001830C900CA014B1C172B48080F
:10060000FA07031C092BF90A031D092BF80A031921
:10061000CA174708F907031C102BF80A0319CA1751
:100620004608C300C3174308F8070318CA17CA0DC2
:10063000F80CF90CFA0CCD0CCC0CCB0C0310C90B3C
:10064000FC2A0130F7070318492BF81B2E2BCD0D80
:10065000FA0DF90DF80DF7030319492BCD1F3F2BA8
:10066000FA0A031D3F2BF90A031D3F2BF80A031D4D
:100670003F2BF80CF90CFA0CF70A0319492B420826
:10068000CA004608CA06CA1F472BF8174D2BF81395
:100690004D2BF701F801F901FA018A110A124F2CCA
:1006A0008E30F7004008F7024108F9004208F800D0
:1006B000F917F7080319672B0310F908031D632BBB
:1006C000F8080319672BF90CF80CF70B5C2BC11F0A
:1006D0006E2BF809F909F80A0319F90A8A110A12A6
:1006E000582C03081F398300AC01AB01AE01AD01EA
:1006F000BF01BE01831603170908C039890003131F
:100700001F129F120030031788008312870188018F
:100710008901831314300313AF002830B0003C303C
:10072000B1005030B2006430B3007830B4008C3087
:10073000B500A030B600B430B700C830B800DC3027
:10074000B900F030BA000030831686000914891011
:100750000911891183120610D6281F139F178316BB
:100760009F1783121F14831603170908C0398900C5
:1007700003131F129F120130031788000030F80086
:10078000831203131F08C33978049F004230F70017
:10079000F70BC82B00000430C000FA30CA006F20ED
:1007A000C00BCD2B9F149F18D32B83161E088312CA
:1007B000BC001E08BD003D08C1003C08C000C301CC
:1007C0000C30C20014297908C1007808C0007908EB
:1007D000C3007808C2000330C500FC30C4002B29D8
:1007E0007808BB000B3C0318F72B0B30BB003E080E
:1007F0003C02031DFF2B3F083D020319292C6430E6
:1008000003178D0000308F00031007300313C00062
:100810009021103084003D08C1003C08C000E72949
:100820000A30CA006F206A3003178D0000308F0035
:10083000031007300313C00090213B08C00018309C
:10084000C100612A0A30CA006F203D08BF003C0881
:10085000BE0009182C2CD22B0C30C90064211F10AB
:10086000C73083168105383083128100A0308B0495
:100870002F303B0784008313C2010008C100BA2A4D
:100880007A08C4007908C3007808C2007708C1005C
:10089000C801C7017A30C6008230C500D92A7A085B
:1008A000C3007908C2007808C1007708C000502B47
:0C08B0007908AE007808AD005C2C6300F5
:04400E00F22C000789
:00000001FF
;PIC16F887
;CRC=DB12  CREATED="26-Ara-24 00:48"
