:1000000012308A00F62A0000FF00030E8301A100CF
:100010000A08A0008A010408A2007708A300780853
:10002000A4007908A5007A08A60003170D08031399
:10003000A70003170F080313A80003170C080313E6
:10004000A90003170E080313AA00831383120B1EC3
:100050002B288B1850288B1E2F280B195328220869
:1000600084002308F7002408F8002508F900260872
:10007000FA00270803178D000313280803178F00C1
:100080000313290803178C0003132A0803178E0093
:10009000031320088A00210E8300FF0E7F0E090043
:1000A0008A110A1256288A110A125D283730AD00CB
:1000B0008B108B108A110A122F28E50A0319E60A01
:1000C00067086502031D6B2868086602031D6B281C
:1000D000E601E5018B1265080F398316D700D801B8
:1000E000D708031D8528D808031D85280130FB0289
:1000F0000030031C0130FC02FB08031D8528FC08AE
:10010000031D852883128B12831683120B110B118A
:100110008A110A122F284F386539E139F9376E00F4
:10012000C2307336613A6936E4340000CD346B393D
:100130006F36E53AED136100C837F3336536E434C2
:10014000EE347A00CC3A74336537A0296933F23241
:10015000EE34FA340001C734F234EE347A00B116CA
:10016000CB37F03A6B10C939EC326D10BC16000178
:10017000B216D33AA0247336E5360001B216D33A4C
:10018000A0247336E536201E2D00B316C830F63095
:10019000A0247336E5360001B316C830F630A0242B
:1001A0007336E536201E2D00B416C334EC30A0247F
:1001B0007336E5360001B416C334EC30A024733630
:1001C000E536201E2D00B516CB30F9347410C93930
:1001D000EC326D00B516CB30F9347410C939EC32FD
:1001E0006D10BC160000D531F232741D2532203A54
:1001F0006C00D33AF232BA126C320000D332631D73
:100200000001D531F232741D2536641074360001B8
:10021000D332631D0001C939EC326D102D1031103D
:10022000BC160001C939EC326D102D103200C939ED
:10023000EC326D102D103210BC160001C939EC32B1
:100240006D102D103300C939EC326D102D103310A4
:10025000BC160001C939EC326D102D103400C939BB
:10026000EC326D102D103410BC160001C939EC327F
:100270006D102D103500C939EC326D102D10351070
:10028000BC1600004326CF2949274700CB37F03A58
:100290006B1D25366400D33A3A1D25366400C830FC
:1002A000F630BA126C320001C334EC30BA126C3240
:1002B0000000C837F3336536E434EE347A00D332C5
:1002C000EC31F5352021E53C0001C837F3336536C4
:1002D000E434EE347A00C536F2322021E53C0000E9
:1002E000A02B3A102532202A4C0020283A10253223
:1002F000202A4C004F386539E139F9376E10D33771
:10030000EE3A0001C939EC326D3665396937693D1D
:100310000001CB30793265326936E93C6F39000132
:10032000CB30F934743661390001D430ED306D369C
:100330006137E4340001D3306736E931E135EC3020
:100340000001CB30EC34EE347A00CD3084008313DE
:1003500000080319B9290130F800F701F70BAE299D
:10036000F80BAD294A30F700F70BB429B729800BF9
:10037000AB29080083165418C12983120812C32917
:1003800083168312081683160812D418CB298312F9
:100390008812CD2983168312881683168812541961
:1003A000D52983120813D7298316831208178316B9
:1003B0000813D419DF2983128813E12983168312C5
:1003C00088178316881300008312081483160810F8
:1003D000E929831208108316081083120800831677
:1003E000D501081600308312081A01308316D5048F
:1003F000881600308312881A0130F7000310F70DB9
:1004000077088316D504081700308312081B0130C3
:10041000F700F70DF70DFC30F70577088316D504C4
:10042000881700308312881B0130F700F70DF70D95
:10043000F70DF830F70577088316D5045508F8004E
:100440008312080083160810881008118312881080
:10045000831688100816881608178817831208153F
:100460008316081100008312081483160810000078
:100470008312EF2178088316D400831208108316A4
:10048000081000008312081483160810000083125D
:10049000EF2178088316D300831208108316081002
:1004A0000812881208138813540EF700F030F7056D
:1004B00077085304F8007808D300D31B2A2AD10800
:1004C000031D662A83128810682A831683128814F3
:1004D000831688100000831208118316081100008B
:1004E0008312081083160810520ED3000F30D30564
:1004F0005308D4008312BA21831652080F39D3004F
:10050000D4008312BA21080028308316C2000C30B0
:10051000C3000130C4000630C500831208108316E2
:10052000081083128810831688108312081183160E
:10053000081108128812081388130810881008116F
:100540000F30CD008312A52101308316C100410870
:10055000033C031CB72A0330D4008312BA210530B0
:100560008316CD008312A5218316C10AA72A023063
:10057000D4008312BA2105308316CD008312A52141
:100580008316C1014108033C031CD42AC230410731
:10059000840083130008C600D1014608D2008312EC
:1005A00022228316C10AC22A0130860009110910CD
:1005B00089108312891409140915831620088312DF
:1005C000860083160117903083128B04C730831680
:1005D0008105383083128100831603170908C0395A
:1005E000890003131F129F12033003178800831220
:1005F00003131F139F1783169F1783121F140630B0
:10060000F700F70B012B00008A110A16812B8316C5
:100610004E0B0B2B0E2B4030CF000F2BCF01013098
:100620004D02CF074F088038D000D1015008D200CA
:1006300083122222080083164C08073A83120319FA
:100640002B2B0B3A0319322B063A03193E2B023A95
:100650000319462B4D2B01308316CD00CE0083129B
:100660000723542B8316D1010130D200831222229A
:1006700002308316CD008312A521542B013083163E
:10068000CD000230CE0083120723542B8316D101F4
:100690001030D20083122222542B01308316D10055
:1006A0004C08D2008312222208000B088316C100D6
:1006B00083128B13831603178C170C140000000091
:1006C0000313C11F662B83128B1783168312031724
:1006D0000C087F390319C72B83160313C10083123B
:1006E00003170D0883160313C200831203170F08A4
:1006F00083160313C3004108CC0083121B23831607
:100700004208831203178D008316031343088312D4
:1007100003178F0003130B088316C40083128B1377
:10072000831603178C170C14000000000313C41F5A
:100730009C2B83128B178316831203170C0D0E0D3F
:100740007F390319C72B83160313C10083120317C4
:100750000D0883160313C200831203170F088316B4
:100760000313C3004108CC0083121B2383164208E5
:10077000831203178D008316031343088312031794
:100780008F008D0A03198F0A0313552B03170313C8
:1007900008000C308316CC0083121B230430831610
:1007A000CD000130CE0083120723963003178D0051
:1007B00000308F000313552304308316CD00023020
:1007C000CE00831207239C3003178D0000308F006A
:1007D0000313552304308316C100C830CD008312A3
:1007E000A5218316C10BED2B0C30CC0083121B23EB
:1007F00001308316CD00CE0083120723A2300317E9
:100800008D0000308F000313552306308316CD0072
:100810000230CE0083120723AB3003178D00003067
:100820008F000313552304308316C100C830CD0058
:100830008312A5218316C10B162C0C30CC00831219
:100840001B238A110A16912B2B082B3C031D482CC5
:10085000C00104308316CD000130CE00831207237F
:10086000593003178D0001308F00031355230430D6
:100870008316CD000230CE00831207235F300317AA
:100880008D0001308F00031355230130AC00712C13
:100890002B082A3C031D6D2C0130C0000430831648
:1008A000CD000130CE0083120723653003178D0081
:1008B00001308F000313552304308316CD0002301E
:1008C000CE00831207236B3003178D0001308F0099
:1008D000031355230130AC00712C2B082E3C031957
:1008E000AC018A110A169A2B10308316C900F70141
:1008F000FA01C60CC50C031C832C4708F707031824
:10090000FA0A4808FA07FA0CF70CF90CF80CC90BAC
:10091000792C83120800F801F901F701FA01831616
:100920004608031D962C45080319B02C1030C7004B
:100930000310C30DC40DF70DFA0D46087A02031D0E
:10094000A32C45087702031CAC2C4508F702031CB6
:10095000FA034608FA020314F80DF90DC70B982C98
:10096000831208000C308316CC0083121B23C108AD
:10097000031DD52C01308316CD00CE008312072332
:10098000AF3003178D0000308F0003135523013063
:100990008316CD000230CE0083120723B830031730
:1009A0008D0000308F0003135523410BF22C0130D2
:1009B0008316CD00CE0083120723BE3003178D00AF
:1009C00000308F000313552301308316CD00023011
:1009D000CE0083120723C53003178D0000308F002F
:1009E000031355234108023C031D112D01308316CA
:1009F000CD00CE0083120723CC3003178D000030CA
:100A00008F000313552301308316CD000230CE0032
:100A100083120723D43003178D0000308F00031397
:100A200055234108033C031D302D01308316CD00B2
:100A3000CE0083120723DB3003178D0000308F00B8
:100A40000313552301308316CD000230CE008312EC
:100A50000723E33003178D0000308F000313552365
:100A60004108043C031D412D01308316CD00CE000A
:100A700083120723EA3003178D0000308F00031321
:100A800055238A110A16E92B0B088316C40083121A
:100A90008B13831603178C170C140000000003132C
:100AA000C41F552D83128B17831603188E2D8312A6
:100AB00003170C087F3983160313C400831203172E
:100AC0000D0883160313C500831203170F0883163E
:100AD0000313C6004408CC0083121B238316450869
:100AE000831203178D00831603134608831203171E
:100AF0008F0003130B088316C70083128B13831612
:100B000003178C170C14000000000313C71F8B2D54
:100B100083128B178316C30B8E2DBC2D83120317E4
:100B20000C0D0E0D7F3983160313C40083120317B7
:100B30000D0883160313C500831203170F088316CD
:100B40000313C6004408CC0083121B2383164508F8
:100B5000831203178D0083160313460883120317AD
:100B60008F008D0A03198F0A031083160313C30B1A
:100B7000BA2DBC2D8312442D831208008316490818
:100B8000F80148020318C72D4808F700D32DF701D4
:100B90000830CA00C80DF70D490877020318F7009E
:100BA000F80DCA0BCA2D8312080020308316431E8D
:100BB0003030C4004208F700C21FE62DF709F70ADB
:100BC0007708C2002D30C400C31743144208C80080
:100BD0006430C9008312BE2577088316C200303006
:100BE0007807C5004208C8000A30C9008312BE2534
:100BF000303077078316C70030307807C6004408C6
:100C0000F700303045020319092EC314C31B4315E6
:100C10001D2E4408C5002030C400303046020319A0
:100C2000152E4314C31BC3141D2E031D4314031D93
:100C30001D2E4508C6002030C5004319242EC318B8
:100C4000292E43182E2E332E4408CC0083121B234A
:100C500083164508CC0083121B2383164608CC005C
:100C600083121B2383164708CC0083121B23080022
:100C70008316CB010408CA004B10831B4B14C41FFE
:100C8000492ECA174A1ECA0AC309C409C30A03194E
:100C9000C40A440EF038C600C607E23EC700323E22
:100CA000C90044080F39C707C707C907E93EC8008C
:100CB000C807C807430E0F39C807C907C80DC90DB3
:100CC000C909C90D43080F39C907C60D0730C5004A
:100CD0000A30C907C803031C692EC807C703031CD1
:100CE0006D2EC707C603031C712EC607C503031C60
:100CF000752EC5308400831307304A054A138403D8
:100D00004A05031D8A2E4A1A840A4A1A8A2E20305E
:100D1000F700A72E8407C930040203194A170008F8
:100D2000F700031D9B2E4A1B9B2E4A1AB72ECA1989
:100D30009B2E2030A62ECA1FA32E2D30F700840331
:100D40004A13CA13A72ECA154A123030F707C40136
:100D50000408C3004410831B44147708CC0083129A
:100D60001B23831643088400831344188317840AC3
:100D70004A1F8B2E831208000C308316CC0083127E
:100D80001B2301308316CD00CE00831207230310EE
:100D9000420D4D3E84008313840A00088316C2006E
:100DA00084030008C1004208C4004108C300C60112
:100DB0000A30C50083128B2479088316C200780894
:100DC000C1000310410DF900420DFA007908C1007D
:100DD000F330831203178D0000308F0003100630AC
:100DE00083160313C3008312442583164108C200EF
:100DF0001830C3008312D52520308316CC0083120F
:100E00001B2374308316CC0083121B236C30831693
:100E1000CC0083121B2301308316CD000230CE009C
:100E2000831207230310420D4D3E84008313840A6E
:100E300000088316C20084030008C100F930831241
:100E400003178D0000308F00031005308316031345
:100E5000C300831244251030840083164208C40066
:100E60004108C300831238260A308316CD000230B1
:100E7000CE0083120723FE3003178D0000308F0051
:100E8000031355230E308316CD000230CE0083129B
:100E900007232E088316CC0083121B238316851686
:100EA0008312851EE62F5830AE00C108031D852F22
:100EB000400DF700F70DF70DF830F7057708303ED5
:100EC000F800FA010318FA0A78088316C1007A08B4
:100ED000C20003108312420D4D3E84008313840A26
:100EE0000008FA00840300088316C3007A08C400CF
:100EF00041088400831342188317840A4408800041
:100F0000840343088000E52F8312410BB52F400D69
:100F1000F700F70DF70DF830F7057708023E303E81
:100F2000F800FA010318FA0A78088316C1007A0853
:100F3000C20003108312420D4D3E84008313840AC5
:100F40000008FA00840300088316C3007A08C4006E
:100F500041088400831342188317840A44088000E0
:100F6000840343088000E52F83124108023C031DDF
:100F7000E62F400DF700F70DF70DF830F70577086D
:100F8000043E303EF800FA010318FA0A7808831686
:100F9000C1007A08C20003108312420D4D3E840046
:100FA0008313840A0008FA00840300088316C30030
:100FB0007A08C40041088400831342188317840A06
:100FC00044088000840343088000831283163E1483
:100FD0003E0887008312071CEF2F2030AE005030F0
:0E0FE0008316CD008312A5218A110A16322C29
:101000000C308316CC008A1183121B238A15013001
:101010008316CD00CE008A11831207238A15031090
:10102000430D693E84008313840A0008FA00840398
:1010300000088316C1007A08C200C6010F30C5003F
:101040004208C8004108C7008A11831274248A1517
:1010500079088316C2007808C10001308312031793
:101060008D0001308F000310063083160313C30078
:101070008A11831244258A15103084008316420891
:10108000C4004108C3008A11831238268A15203013
:101090008316CC008A1183121B238A1574308316A1
:1010A000CC008A1183121B238A156C308316CC0066
:1010B0008A1183121B238A1501308316CD0002305A
:1010C000CE008A11831207238A150310430D693E4F
:1010D00084008313840A0008FA008403000883163E
:1010E000C1007A08C200C6016430C5004208C800C9
:1010F0004108C7008A11831274248A15790883165F
:10110000C2007808C1004D30CC008A1183121B2325
:101110008A156C308316CC008A1183121B238A1522
:101120003A308316CC008A1183121B238A151030A3
:10113000840083164208C4004108C3008A11831248
:1011400038268A150A308316CD000230CE008A1167
:10115000831207238A15083003178D0001308F0092
:101160008A11031355238A150E308316CD000230E1
:10117000CE008A11831207238A152E088316CC000D
:101180008A1183121B238A15831685168312851EE6
:101190001B295830AE004108033C031D1B29400D9C
:1011A000F700F70DF70DF830F7057708063E303EEB
:1011B0008316C100C2010318C20A03108312430D33
:1011C000693E84008313840A0008FA00840300083F
:1011D0008316C3007A08C400C6016430C500440801
:1011E000C8004308C7008A11831274248A1578083E
:1011F0008316C3007908C400410884008313421891
:101200008317840A44088000840343088000831203
:10121000400DF700F70DF70DF830F7057708063E9B
:10122000303E84008313840A00088316B1008403CF
:101230000008B000831283163E143E088700831214
:10124000071C24292030AE0050308316CD008A11AF
:101250008312A5218A158A110A167D2C0C3083165B
:10126000CC008A1183121B238A15C408031D5B2935
:1012700001308316CD00CE008A11831207238A1510
:101280000B3003178D0001308F008A110313552393
:101290008A1501308316CD000230CE008A118312E8
:1012A00007238A15123003178D0001308F008A1131
:1012B000031355238A15440B802901308316CD0072
:1012C000CE008A11831207238A15173003178D0069
:1012D00001308F008A11031355238A1501308316BC
:1012E000CD000230CE008A11831207238A151E30EA
:1012F00003178D0001308F008A11031355238A15BF
:101300004408023C031DA72901308316CD00CE00FE
:101310008A11831207238A15233003178D000130A9
:101320008F008A11031355238A1501308316CD00CF
:101330000230CE008A11831207238A152A30031740
:101340008D0001308F008A11031355238A1544083C
:10135000033C031DCE2901308316CD00CE008A1137
:10136000831207238A152F3003178D0001308F0059
:101370008A11031355238A1501308316CD000230DC
:10138000CE008A11831207238A15363003178D0089
:1013900001308F008A11031355238A154408043C39
:1013A000031DE32901308316CD00CE008A1183127C
:1013B00007238A153B3003178D0001308F008A11F7
:1013C000031355238A1550308316CD008A118312DA
:1013D000A5218A158A110A16C92CC008031D4A2A9C
:1013E000013083163D02F700F70DF70DFC30F705CD
:1013F0007708043EC1004108831203178D0083164D
:101400008C130C1483120C0883160313B7000130DD
:101410003D02F700F70DF70DFC30F7057708053EA4
:10142000C1004108831203178D0083168C130C141E
:1014300083120C0883160313B80001303D02F70035
:10144000F70DF70DFC30F7057708063EC10041089F
:10145000831203178D0083168C130C1483120C084F
:1014600083160313B90001303D02F700F70DF70DA5
:10147000FC30F7057708073EC100410883120317C7
:101480008D0083168C130C1483120C08831603131F
:10149000BA008312400BAA2A013083163D02F700DE
:1014A000F70DF70DFC30F7057708043E823EC100CA
:1014B0004108831203178D0083168C130C148312BA
:1014C0000C0883160313B70001303D02F700F70D37
:1014D000F70DFC30F7057708053E823EC100410854
:1014E000831203178D0083168C130C1483120C08BF
:1014F00083160313B80001303D02F700F70DF70D16
:10150000FC30F7057708063E823EC1004108831291
:1015100003178D0083168C130C1483120C0883168A
:101520000313B90001303D02F700F70DF70DFC3051
:10153000F7057708073E823EC10041088312031772
:101540008D0083168C130C1483120C08831603135E
:10155000BA0083120C308316CC008A1183121B232D
:101560008A1501308316CD00CE008A11831207231D
:101570008A1546308316CC008A1183121B238A15E4
:101580003A308316CC008A1183121B238A1520302F
:101590008316CC008A1183121B238A158316370801
:1015A000C2001830C3008A118312D5258A15203055
:1015B0008316CC008A1183121B238A15543083169C
:1015C000CC008A1183121B238A154C308316CC0061
:1015D0008A1183121B238A1508308316CD0001302F
:1015E000CE008A11831207238A15703003178D00ED
:1015F00001308F000310043083160313C3008A11D7
:10160000831244258A1583163808C2001830C30097
:101610008A118312D5258A1520308316CC008A11B1
:1016200083121B238A1554308316CC008A1183122F
:101630001B238A154C308316CC008A1183121B237E
:101640008A1501308316CD000230CE008A11831234
:1016500007238A1556308316CC008A1183121B2368
:101660008A153A308316CC008A1183121B238A15FF
:1016700020308316CC008A1183121B238A1583160F
:101680003908C2001830C3008A118312D5258A1583
:1016900020308316CC008A1183121B238A15543004
:1016A0008316CC008A1183121B238A154C308316B3
:1016B000CC008A1183121B238A1508308316CD00B3
:1016C000CE008A11831207238A15753003178D0007
:1016D00001308F000310043083160313C3008A11F6
:1016E000831244258A1583163A08C2001830C300B5
:1016F0008A118312D5258A1520308316CC008A11D1
:1017000083121B238A1554308316CC008A1183124E
:101710001B238A154C308316CC008A1183121B239D
:101720008A1564308316CD008A118312A5218A158B
:101730008A110A16E62C8E30F70083164208F8004C
:101740004108F900FA01F808031DB02B7908F800E8
:10175000F9010830F702F808031DB02BF701B82B88
:101760000310F81BB72BF90DF80DF703B02BF81386
:10177000831208008316410803192B2CC900450861
:1017800003192B2CC9070318CC2B7F30C902031C6B
:101790002B2C03192B2CD02B8130C90703182B2C91
:1017A0004908F700F801F901FA014208CD00CD1708
:1017B0004308CC004408CB001830C900CA014B1CB8
:1017C000F92B4808FA07031CEB2BF90A031DEB2B36
:1017D000F80A0319CA174708F907031CF22BF80A7D
:1017E0000319CA174608C300C3174308F8070318AC
:1017F000CA17CA0DF80CF90CFA0CCD0CCC0CCB0C9A
:101800000310C90BDE2B0130F70703182B2CF81B34
:10181000102CCD0DFA0DF90DF80DF70303192B2C33
:10182000CD1F212CFA0A031D212CF90A031D212C9E
:10183000F80A031D212CF80CF90CFA0CF70A03190D
:101840002B2C4208CA004608CA06CA1F292CF817C2
:101850002F2CF8132F2CF701F801F901FA0183124C
:1018600008008E30F70083164108F7024208F9009D
:101870004308F800F917F7080319492C0310F90871
:10188000031D452CF8080319492CF90CF80CF70B2B
:101890003E2CC21F502CF809F909F80A0319F90A5D
:1018A000831208007608043C031D832C831631083C
:1018B000C4003008C300C6010A30C5008A11831273
:1018C0008B248A157708F30083163108C40030088A
:1018D000C300C6010A30C5008A1183128B248A1501
:1018E00079088316C2007808C1004208C400410884
:1018F000C300C6010A30C5008A1183128B248A15E1
:101900007708F400CD2C7C088316C4007B08C30044
:10191000C6010A30C5008A1183128B248A15770804
:10192000F3007C088316C4007B08C300C6010A309C
:10193000C5008A1183128B248A1579088316C20088
:101940007808C1004208C4004108C300C6010A303B
:10195000C5008A1183128B248A157708F4007C084D
:101960008316C4007B08C300C6016430C5008A1119
:1019700083128B248A1579088316C2007808C10067
:101980004208C4004108C300C6010A30C5008A11DC
:1019900083128B248A157708F50089140910091120
:1019A000A03073078400831300088316C1008312DC
:1019B00086000A308316CD008A118312A5218A156C
:1019C000891009140911A0307407840083130008DA
:1019D0008316C100831286000A308316CD008A1157
:1019E0008312A5218A15891009100915A0307507E1
:1019F0008400831300088316C100831286000A3016
:101A00008316CD008A118312A5218A150800891436
:101A10000914091583162008831286008A110A16F4
:021A2000A52EF1
:102000000C308316CC000A1283121B230A160230EE
:102010008316CD000130CE000A12831207230A1660
:102020007A3003178D0001308F000A1203135523F5
:102030000A1608308316C100FA30CD000A12831246
:10204000A5210A168316C10B1C280C30CC000A12DD
:1020500083121B230A1603308316CD000130CE00F5
:102060000A12831207230A16823003178D000130EB
:102070008F000A12031355230A1603308316CD006E
:102080000230CE000A12831207230A168930031782
:102090008D0001308F000A12031355230A167608AB
:1020A000003C03180229400DF700F70DF70DF8303A
:1020B000F7057708303E84008313840A00088316EE
:1020C000C20084030008C1004208C4004108C300E4
:1020D000C6010A30C5000A1283128B240A16790839
:1020E0008316C2007808C1000310410DF900420DAB
:1020F000FA007908B3008312400DF700F70DF70DD1
:10210000F830F7057708023E303E84008313840AD6
:1021100000088316C20084030008C1004208C400FE
:102120004108C300C6010A30C5000A1283128B247D
:102130000A1679088316C2007808C1000310410D01
:10214000F900420DFA007908B4008312400DF7003F
:10215000F70DF70DF830F7057708043E303E8400A0
:102160008313840A00088316C20084030008C10098
:102170004208C4004108C300C6010A30C5000A1263
:1021800083128B240A1679088316C2007808C100CE
:102190000310410DF900420DFA007908B5008312D1
:1021A000400DF700F70DF70DF830F7057708063EFC
:1021B000303E84008313840A00088316C20084031F
:1021C0000008C1004208C4004108C300C6016430D1
:1021D000C5000A1283128B240A1679088316C200DE
:1021E0007808C1004208C6004108C500C8010F3088
:1021F000C7000A12831274240A1678088316B600E0
:10220000072983128316B301B401B501B601831205
:10221000C008031DBC2903178D0183168C130C14F1
:1022200083120C0883160313BB0005303B07C10063
:1022300083120B08F7008B138316410883120317D0
:102240008D00831603133308831203178C00831643
:102250008C130C1555308D00AA308D008C148C1801
:102260002F290C117708831203138B048316BB0AE2
:1022700005303B07C10083120B08F7008B13831650
:102280004108831203178D00831603133408831249
:1022900003178C0083168C130C1555308D00AA3053
:1022A0008D008C148C1852290C117708831203139B
:1022B0008B048316BB0A05303B07C10083120B0851
:1022C000F7008B1383164108831203178D008316C2
:1022D00003133508831203178C0083168C130C1517
:1022E00055308D00AA308D008C148C1875290C1176
:1022F0007708831203138B048316BB0A05303B0750
:10230000C10083120B08F7008B1383164108831258
:1023100003178D00831603133608831203178C00EE
:1023200083168C130C1555308D00AA308D008C143B
:102330008C1898290C117708831203138B048316C9
:10234000BB0A83120B08F7008B1303178D0183164A
:1023500003133B08831203178C0083168C130C1590
:1023600055308D00AA308D008C148C18B5290C11B5
:102370007708831203138B04400B752A82300317EE
:102380008D0083168C130C1483120C088316031310
:10239000BC0082303C07053EC10083120B08F700E9
:1023A0008B1383164108831203178D0083160313C2
:1023B0003308831203178C0083168C130C155530C9
:1023C0008D00AA308D008C148C18E4290C1177082C
:1023D000831203138B048316BC0A82303C07053E2C
:1023E000C10083120B08F7008B1383164108831278
:1023F00003178D00831603133408831203178C0010
:1024000083168C130C1555308D00AA308D008C145A
:102410008C18082A0C117708831203138B04831677
:10242000BC0A82303C07053EC10083120B08F7004E
:102430008B1383164108831203178D008316031331
:102440003508831203178C0083168C130C15553036
:102450008D00AA308D008C148C182C2A0C11770852
:10246000831203138B048316BC0A82303C07053E9B
:10247000C10083120B08F7008B13831641088312E7
:1024800003178D00831603133608831203178C007D
:1024900083168C130C1555308D00AA308D008C14CA
:1024A0008C18502A0C117708831203138B0483169F
:1024B000BC0A83120B08F7008B13823003178D00C0
:1024C000831603133C08831203178C0083168C13A6
:1024D0000C1555308D00AA308D008C148C186E2A86
:1024E0000C117708831203138B0404308316C10088
:1024F000FA30CD000A128312A5210A168316C10BE9
:10250000782A0C30CC000A1283121B230A160530DD
:102510008316CD000130CE000A12831207230A165B
:10252000903003178D0001308F000A1203135523DA
:102530000A1604308316CD000230CE000A12831230
:1025400007230A16953003178D0001308F000A12F9
:10255000031355230A1604308316C100FA30CD0048
:102560000A128312A5210A168316C10BAE2A0C305B
:10257000CC000A1283121B230A1604308316CD00E6
:102580000130CE000A12831207230A169B3003176C
:102590008D0001308F000A12031355230A160430F0
:1025A0008316CD000230CE000A12831207230A16CA
:1025B000A13003178D0001308F000A120313552339
:1025C0000A1604308316C100FA30CD000A128312B5
:1025D000A5210A168316C10BE42A0C30CC000A127E
:1025E00083121B230A168A110A16AE2E03081F39FE
:1025F0008300831603178711193003139900A6303F
:1026000098009030831298000130AF00E601E50198
:10261000E801E701F301F401F501F6018316B201C7
:10262000B301B401B501B601B701B801B901BA01EE
:10263000BB01BC010230BD00FF30BE00C001BF01C4
:1026400003170908C039890003131F129F120030B5
:1026500003178800831287018801890183131430CE
:102660000313CD00CE012830CF00D0013C30D10083
:10267000D2015030D300D4016430D500D601783077
:10268000D700D8018C30D900DA01A030DB00DC01A2
:10269000B430DD00DE01C830DF00E001DC30E100F5
:1026A000E201F030E300E4010130E900EA01023028
:1026B000EB00EC010330ED00EE010430EF00F0011F
:1026C0000530F100F2017E308316A0000C30A1002D
:1026D000B630A2009E30A300CC30A400DA30A500B2
:1026E000FA30A6000E30A700FE30A800DE30A900A8
:1026F000AA01AB01AC01AD01AE01AF010A12831218
:10270000842A0A162E30AB00AC013830AD00F60139
:102710008316B201B301B401B501B6010A128312E6
:10272000C92B0A168C1E9B2B8C1E942B1A08AB00EF
:102730000A12242C0A162C0B9E2BA02B83168E2BF0
:1027400004308316C100FA30CD000A128312A5218D
:102750000A168316C10BA32B0030F80083121F0842
:10276000C33978049F000630F700F70BB52B000043
:102770009F149F18B92B83161E088312C5001E08CC
:10278000C60046088316C600831245088316C50096
:10279000C8010530C7000A12831274240A1679088A
:1027A0008316C2007808C1004208C4004108C30073
:1027B0000330C600FC30C5000A1283128B240A16AF
:1027C0007808C100043C0318E72B0430C1000A124A
:1027D000B22C0A162030AE008316B2018515831282
:1027E000851D3C2C4108023C031C3C2C0430F800A5
:1027F0001F08C33978049F000630F700F70BFE2B43
:1028000000009F149F18022C83161E088312C70015
:102810001E08C80048088316C6008312470883169E
:10282000C500C8010C30C7000A12831274240A16AE
:1028300079088316C2007808C1004208C400410824
:10284000C3000330C600FC30C5000A1283128B247B
:102850000A167808C2000B3C0318302C0B30C2005B
:102860000A12BC2E0A16831605168312051A3C2C72
:102870002D08373C031DF62B831685158312851D05
:10288000882C4108033C031D882C0430F8001F08E5
:10289000C33978049F009F149F184C2C83161E0880
:1028A0008312C9001E08CA004A088316C600831294
:1028B00049088316C500C8010530C7000A128312F3
:1028C00074240A1679088316C2007808C1004208E9
:1028D000C4004108C3000330C600FC30C5000A1222
:1028E00083128B240A167808C300043C03187A2C40
:1028F0000430C3000A128A1500280A168A118316AA
:1029000005168312051A882C2D08373C031D452C0B
:10291000831685158312851DFD2C4108043C031D7B
:10292000FD2C0430F8001F08C33978049F009F1461
:102930009F18982C83161E088312CB001E08CC000B
:102940004C088316C60083124B088316C500C801C5
:102950000530C7000A12831274240A1679088316F8
:10296000C2007808C1004208C4004108C300033017
:10297000C600FC30C5000A1283128B240A167808A0
:10298000C400043C0318C62C0430C4000A128A1583
:102990002E290A168A11FA308316CD000A128312E4
:1029A000A5210A16831685158312851DF42C0C307B
:1029B0008316CC000A1283121B230A160130440727
:1029C0008316BD000A128A158312ED290A168A1190
:1029D000831605168312051EDE2CFA308316CD00F1
:1029E0000A128312A5210A16831605168312051AE8
:1029F000FD2C2D08373C031D912C8316BE143E0878
:102A000087008312871C9B2E0C308316CC000A1281
:102A100083121B230A1604308316CD000130CE002A
:102A20000A12831207230A168B3003178D00003019
:102A30008F000A12031355230A1604308316CD00A3
:102A40000230CE000A12831207230A1690300317B1
:102A50008D0000308F000A12031355230A166430CC
:102A60008316CD000A128312A5210A160130F6073B
:102A7000AF00760B932D2F0B932D400DF700F70D24
:102A8000F70DF830F7057708303E84008313840A89
:102A90000008FE0084030008FD00400DF700F70D5C
:102AA000F70DF830F7057708303E84008313840A69
:102AB0000008FC0084030008FB007E088316C200A7
:102AC0007D08C1000A128A1583129B230A168A11F7
:102AD0007A088316C4007908C3007808C200770812
:102AE000C100C801C7017A30C6008230C5000A1291
:102AF0008A158312BA230A168A117A088316C4002B
:102B00007908C3007808C2007708C1000A128A1544
:102B1000831231240A168A117908E8007808E70040
:102B2000A0308B04AF017608023C031DF12D2F0B62
:102B3000F12D400DF700F70DF70DF830F705770888
:102B4000023E303E84008313840A0008FE008403A2
:102B50000008FD00400DF700F70DF70DF830F70500
:102B60007708023E303E84008313840A0008FC008C
:102B700084030008FB007E088316C2007D08C100A4
:102B80000A128A1583129B230A168A117A08831661
:102B9000C4007908C3007808C2007708C100C801E2
:102BA000C7017A30C6008230C5000A128A15831226
:102BB000BA230A168A117A088316C4007908C3005A
:102BC0007808C2007708C1000A128A1583123124DE
:102BD0000A168A117908E8007808E700A0308B040B
:102BE000AF017608033C031D4F2E2F0B4F2E400DD7
:102BF000F700F70DF70DF830F7057708043E303E83
:102C000084008313840A0008FE0084030008FD008A
:102C1000400DF700F70DF70DF830F7057708043E83
:102C2000303E84008313840A0008FC0084030008FB
:102C3000FB007E088316C2007D08C1000A128A15B7
:102C400083129B230A168A117A088316C400790816
:102C5000C3007808C2007708C100C801C7017A30F4
:102C6000C6008230C5000A128A158312BA230A16DA
:102C70008A117A088316C4007908C3007808C20054
:102C80007708C1000A128A15831231240A168A11A4
:102C90007908E8007808E700A0308B04AF017608D7
:102CA000043C031D7B2E2F0B7B2E83163E153E0806
:102CB00087008312071D692E04308316B00200308E
:102CC000031C0130B1026430CD000A128312A52129
:102CD0000A160A128A1552240A168A118316B00897
:102CE000031D562EB108031D562E8312AF0101306D
:102CF0008316B20083120A128A1552240A168A1108
:102D00008316320B842E9A2E7B0B902EFC08031D0B
:102D1000902E7D083C3C031D902EFE0803199A2E30
:102D2000FB080319952E8312392DFC0803199A2EDE
:102D30008312392D831264308316CD000A12831258
:102D4000A5210A160A128A15072D0A168A112D08BE
:102D5000373C0319AD2E8316AC2B0028822B630061
:04400E00F22C000789
:00000001FF
;PIC16F887
;CRC=AE15  CREATED="02-Oca-25 10:51"
