:1000000000308A00A8280000533A6139F434EE33F6
:10001000A034B231A0366F32753665172E17AE0692
:100020000A000B08A9008B13831603178C170C14F6
:100030000000000083120313A91B8B1703170C0881
:100040007F39031967280313A90003170D08031349
:10005000AA0003170F080313AB0029080C1E2E2853
:1000600099002A0803178D0003132B0803178F002C
:1000700003130B08AC008B13831603178C170C1497
:100080000000000083120313AC1B8B1703170C0D29
:100090000E0D7F39031967280313A90003170D08F4
:1000A0000313AA0003170F080313AB0029080C1E43
:1000B000572899002A0803178D0003132B080317EC
:1000C0008F008D0A03198F0A0313112803170313D6
:1000D0008A11E32894138C11290893000230941B91
:1000E00078288C1D712800308316111B0130831273
:1000F000A10008002A3084008313000803198E2809
:100100000130A100A001A00B8328A10B82284A3056
:10011000A000A00B89288C28800B802808001413CD
:1001200083169115911992288312201C9A28831600
:100130009112831220189F2883169116831283161A
:100140001116111AA12883121308A1008A113B2944
:1001500003081F398300613083168F0090010F0858
:100160008312A40183169B1119309900A6309800C0
:1001700090308312980083160617061602309300FB
:100180002830831294008316941314138312A6014B
:10019000A50103171F109F101F119F1103131F1399
:1001A000003003179E0099019A0183169E01831265
:1001B0009B0103138D128313043003178D0000304D
:1001C0008F0003131128831611141118E528A0308D
:1001D0008312A9006A200A30AA007A208030A90080
:1001E0006A20A9016A200130A9006A200230A90012
:1001F0006A20831611151119FB280A308312AA00F0
:100200007A208316111411180329A0308312A90033
:100210006A200A30AA007A208030A9006A20A90149
:100220006A200230A9006A200230A9006A208316E1
:100230001115111919290A308312AA007A20831680
:10024000111411182129A0308312A9006A208030CE
:10025000A9006A20A9016A208316911491182E29F9
:10026000A1308312A9006A20A7012708013C031CC2
:100270004B29A0018F282108A8008316870183122B
:10028000280887000430A900FA30AA007A20A90BB8
:100290004429A70A35298316111511194D2904304F
:1002A0008312A900FA30AA007A20A90B5229DC286F
:0202B0006300E9
:02400E00E40FBD
:00000001FF
;PIC16F690
;CRC=FF13  CREATED="11-Ara-24 21:53"
