:1000000000308A004E280000FF00030E8301A1008B
:100010000A08A0008A010408A2007708A300780853
:10002000A4007908A5007A08A600831383120B1E8A
:100030001B288B182C28220884002308F70024088A
:10004000F8002508F9002608FA0020088A00210E89
:100050008300FF0E7F0E09008A110A122F2802303A
:100060008606A700FA30A800283084008313000811
:10007000031948280130F800F701F70B3D28F80B69
:100080003C284A30F700F70B43284628800B3A28D3
:10009000A70B32288B108A110A121B2803081F395C
:1000A0008300831603170908C039890003131F1240
:1000B0009F1200300317880083128701880189018D
:1000C0008313013083160313860083128610831670
:0E00D000011783120B16C0308B046D286300DD
:04400E00F22C000789
:00000001FF
;PIC16F887
;CRC=AEC0  CREATED="17-Ara-24 21:09"
