:1000000000308A004F280000FF00030E8301A1008A
:100010000A08A0008A010408A2007708A300780853
:10002000A4007908A5007A08A600831383120B1E8A
:100030001B288B182C28220884002308F70024088A
:10004000F8002508F9002608FA0020088A00210E89
:100050008300FF0E7F0E09008A110A122F2802303A
:100060008606A900FA30AA002A308400831300080B
:10007000031948280130F800F701F70B3D28F80B69
:100080003C284A30F700F70B43284628800B3A28D3
:10009000A90B3228A7108B108A110A121B280308FB
:1000A0001F398300831603170908C0398900031319
:1000B0001F129F12003003178800831287018801E6
:1000C00089018313013083160313860083122817D6
:0A00D000A7102716A7176B2863007E
:04400E00F22C000789
:00000001FF
;PIC16F887
;CRC=CB74  CREATED="18-Ara-24 01:16"
