:1000000003308A008E2B0000FF00030E8301A10045
:100010000A08A0008A010408A2007708A300780853
:10002000A4007908A5007A08A60003170D08031399
:10003000A70003170F080313A80003170C080313E6
:10004000A90003170E080313AA00831383120B1EC3
:100050002B288B1850288B1E2F280B195328220869
:1000600084002308F7002408F8002508F900260872
:10007000FA00270803178D000313280803178F00C1
:100080000313290803178C0003132A0803178E0093
:10009000031320088A00210E8300FF0E7F0E090043
:1000A0008A110A1256288A110A125A288B108A11AC
:1000B0000A122F28C10A0319C20A43084102031D6C
:1000C000682844084202031D68288B12C201C1013E
:1000D00041080F39EA00EB01EA08031D7E28EB080E
:1000E000031D7E280130BE020030031C0130BF0218
:1000F000BE08031D7E28BF0803198B120B110B11BC
:100100008A110A122F288C20C421201DA012EC3A3B
:1001100000008A246E32653CBD12640061308400A8
:10012000831300080319A2280130F800F701F70B28
:100130009728F80B96284A30F700F70B9D28A0283F
:10014000800B94280800680EF039F7000F3008057E
:100150007704880000000814AD280810080008087B
:10016000F700080E0F39F8000800831608108810F1
:100170000811831288100F3083160805F0388800A4
:1001800083120815000008140000AF207808E8006A
:100190000810000008140000AF207808E7000810DD
:1001A0000F308316080588008312680EF700F030C0
:1001B000F70577086704F8007808E700E71BBB2815
:1001C000651C8810651888140000081100000810CC
:1001D000660EE7000F30E7056708E800A320660811
:1001E0000F39E700E800A32008002830D8000C30C1
:1001F000D9000130DA000630DB0008108810081141
:100200000F308316080588000810881008110F3079
:100210008312E1008E200130D7005708033C031CF5
:1002200019290330E800A3200530E1008E20D70A09
:100230000D290230E800A3200530E1008E20D7010F
:100240005708033C031C3029583057078400831398
:100250000008DC00E5015C08E600B520D70A20298B
:100260008A110A12E12B1030DB00F701FA01D80CD9
:10027000D70C031C41295908F7070318FA0A5A0832
:10028000FA07FA0CF70CF90CF80CDB0B37298A117A
:100290000A12182CF801F901F701FA015C08031D94
:1002A00054295B0803196E291030DD000310D90DA5
:1002B000DA0DF70DFA0D5C087A02031D61295B085F
:1002C0007702031C6A295B08F702031CFA035C0827
:1002D000FA020314F80DF90DDD0B56290800620B24
:1002E000722975294030E3007629E301013061026B
:1002F000E30763088038E400E5016408E600B52000
:1003000008006008073A03198F290B3A031994294A
:10031000063A03199C29023A0319A229A729013098
:10032000E100E2006F21AC29E5010130E600B520D3
:100330000230E1008E20AC290130E1000230E20001
:100340006F21AC29E5011030E600B520AC29013061
:10035000E5006008E600B52008000B08D8008B1304
:10036000831603178C170C1400000000831203136C
:10037000D81B8B170318E42903170C087F390313C4
:10038000D80003170D080313D90003170F08031330
:10039000DA005808E0008121590803178D00031383
:1003A0005A0803178F0003130B08DB008B13831607
:1003B00003178C170C140000000083120313DB1BBF
:1003C0008B17D70BE429032A03170C0D0E0D7F3969
:1003D0000313D80003170D080313D90003170F08E0
:1003E0000313DA005808E0008121590803178D0033
:1003F00003135A0803178F008D0A03198F0A03107D
:100400000313D70BAD290800DF010408DE005F10DD
:10041000831B5F14580EF038DA00DA07E23EDB0087
:10042000323EDD0058080F39DB07DB07DD07E93E08
:10043000DC00DC07DC07570E0F39DC07DD07DC0DBD
:10044000DD0DDD09DD0D57080F39DD07DA0D073049
:10045000D9000A30DD07DC03031C2A2ADC07DB0392
:10046000031C2E2ADB07DA03031C322ADA07D9031E
:10047000031C362A59308400831307305E055E134F
:1004800084075D30040203195E170008F700031D9E
:10049000512A5E1B512A5E1A632ADE19512A203026
:1004A000542ADE155E123030F707D8010408D70051
:1004B0005810831B58147708E000812157088400E6
:1004C000831358188317840A5E1F412A8A110A125F
:1004D000452C5E08F8015D020318712A5D08F700DB
:1004E0007D2AF7010830DF00DD0DF70D5E08770289
:1004F0000318F700F80DDF0B742A08002030581E8F
:100500003030D9005708F700D71F8E2AF709F70AAD
:100510007708D7002D30D900D81758145708DD00B8
:100520006430DE0069227708D70030307807DA00BF
:100530005708DD000A30DE00692230307707DC0022
:1005400030307807DB005908F70030305A020319C1
:10055000AD2AD814D81B5815C12A5908DA00203002
:10056000D90030305B020319B92A5814D81BD814AB
:10057000C12A031D5814031DC12A5A08DB0020306C
:10058000DA005819C82AD818CB2A5818CE2AD12AE6
:100590005908E00081215A08E00081215B08E00051
:1005A00081215C08E00081218A110A12572C8E30CB
:1005B000F7005908F8005808F900FA01F808031D77
:1005C000EB2A7908F800F9010830F702F808031D52
:1005D000EB2AF701F32A0310F81BF22AF90DF80DA4
:1005E000F703EB2AF8138A110A12812C5808031911
:1005F000662BE0005C080319662BE0070318072B45
:100600007F30E002031C662B0319662B0B2B813015
:10061000E0070318662B6008F700F801F901FA01FA
:100620005908E400E4175A08E3005B08E2001830B8
:10063000E000E101621C342B5F08FA07031C262B43
:10064000F90A031D262BF80A0319E1175E08F907BA
:10065000031C2D2BF80A0319E1175D08DA00DA17DD
:100660005A08F8070318E117E10DF80CF90CFA0C19
:10067000E40CE30CE20C0310E00B192B0130F7073C
:100680000318662BF81B4B2BE40DFA0DF90DF80D32
:10069000F7030319662BE41F5C2BFA0A031D5C2B7E
:1006A000F90A031D5C2BF80A031D5C2BF80CF90CEE
:1006B000FA0CF70A0319662B5908E1005D08E106F8
:1006C000E11F642BF8176A2BF8136A2BF701F80166
:1006D000F901FA018A110A12902C8E30F70057089E
:1006E000F7025808F9005908F800F917F708031934
:1006F000842B0310F908031D802BF8080319842BA1
:10070000F90CF80CF70B792BD81F8B2BF809F9098A
:10071000F80A0319F90A8A110A12992C03081F39D9
:100720008300BB01BC01BD01C001C201C101C40104
:10073000C301D501D401FF30D60083160317090881
:10074000C039890003131F129F120030031788005D
:10075000831287018801890183137E300313AB0064
:100760000C30AC00B630AD009E30AE00CC30AF00E7
:10077000DA30B000FA30B1000E30B200FE30B30013
:10078000DE30B400B501B601B701B801B901BA0154
:100790001430C5002830C6003C30C7005030C800B7
:1007A0006430C9007830CA008C30CB00A030CC0057
:1007B000B430CD00C830CE00DC30CF00F030D000F7
:1007C000F5280A30E1008E2001308316870083125D
:1007D000D6001F139F1783169F1783121F148316AB
:1007E00003170908C039890003131F129F12013033
:1007F000031788000030F800831203131F08C33961
:1008000078049F004230F700F70B042C00009F147F
:100810009F18082C83161E088312D2001E08D300CE
:100820005308D8005208D700DA010C30D900332918
:100830007908D8007808D7007908DA007808D90054
:100840000330DC00FC30DB004A217808D1000B3C8F
:1008500003182C2C0B30D10054085202031D342CE9
:100860005508530203195E2C833003178D000030A6
:100870008F00031007300313D700AD211030840020
:100880005308D8005208D700042A0A30E1008E200D
:10089000893003178D0000308F00031007300313D9
:1008A000D700AD215108D7001830D8007E2A0A3071
:1008B000E1008E205308D5005208D4005614560883
:1008C0008316870083120718662C072C45305107C2
:1008D00084008313BF010008BE000C30E0008121BA
:1008E0001F10C73083168105383083128100A03075
:1008F0008B044530510784008313D9010008D800C8
:10090000D72A7A08DB007908DA007808D900770856
:10091000D800DF01DE017A30DD008230DC00F62A0B
:100920007A08DA007908D9007808D8007708D70063
:100930006D2B7908C4007808C30001308316860047
:1009400009110910891083128914091409152B083B
:1009500086008316011783120B16C0308B043F08E4
:10096000DA003E08D900DC010A30DB004A217708B2
:10097000BB003F08DA003E08D900DC010A30DB008A
:100980004A217908D8007808D7007908DA00780871
:10099000D900DC010A30DB004A217708BC003F089F
:1009A000DA003E08D900DC016430DB004A21790816
:1009B000D8007808D7007908DA007808D900DC0177
:1009C0000A30DB004A217708BD00C0014008203C06
:1009D000031C132D8914091009112B303B078400C7
:1009E00083130008D70086000A30E1008E208910AA
:1009F000091409112B303C07840083130008D70029
:100A000086000A30E1008E208910091009152B306C
:100A10003D07840083130008D70086000A30E100F8
:0A0A20008E20C00AE62CAF2C630004
:04400E00F22C000789
:00000001FF
;PIC16F887
;CRC=5700  CREATED="28-Ara-24 17:14"
