:1000000000308A00FA280000FF00030E8301A100DF
:100010000A08A0008A010408A2007708A300780853
:10002000A4007908A5007A08A600831383128B1E0A
:100030001B280B192C28220884002308F700240809
:10004000F8002508F9002608FA0020088A00210E89
:100050008300FF0E7F0E09008A110A122F28A70ABB
:100060000319A80A29082702031D3E282A08280286
:10007000031D3E2801308606A801A7010B110B11B4
:100080008A110A121B288E30F7003808F80037084A
:10009000F900FA01F808031D57287908F800F9015A
:1000A0000830F702F808031D5728F7015F280310EE
:1000B000F81B5E28F90DF80DF7035728F8138A117D
:1000C0000A12322937080319D228BF003B08031946
:1000D000D228BF07031873287F30BF02031CD22821
:1000E0000319D22877288130BF070318D2283F0888
:1000F000F700F801F901FA013808C300C3173908FD
:10010000C2003A08C1001830BF00C001411CA0283D
:100110003E08FA07031C9228F90A031D9228F80AE0
:100120000319C0173D08F907031C9928F80A031999
:10013000C0173C08B900B9173908F8070318C017E9
:10014000C00DF80CF90CFA0CC30CC20CC10C031056
:10015000BF0B85280130F7070318D228F81BB728F2
:10016000C30DFA0DF90DF80DF7030319D228C31FBB
:10017000C828FA0A031DC828F90A031DC828F80A66
:10018000031DC828F80CF90CFA0CF70A0319D22839
:100190003808C0003C08C006C01FD028F817D62871
:1001A000F813D628F701F801F901FA018A110A12A9
:1001B00041298E30F7003708F7023808F90039086E
:1001C000F800F917F7080319F0280310F908031DC0
:1001D000EC28F8080319F028F90CF80CF70BE528BF
:1001E000B81FF728F809F909F80A0319F90A8A115A
:1001F0000A124A2903081F398300A801A701AA018E
:10020000A901831603170908C039890003131F12B7
:100210009F1200300317880083128701880189012B
:10022000831314300313AB002830AC003C30AD0016
:100230005030AE006430AF007830B0008C30B10088
:10024000A030B200B430B300C830B400DC30B50028
:10025000F030B6000030831686008312B8012B08F8
:10026000B70043287A08BA007908B9007808B800BE
:100270007708B700BE01BD017A30BC008230BB00F8
:1002800062287A08BA007908B9007808B8007708B7
:10029000B700D9287908AA007808A900C7308316C2
:1002A0008105383083128100A0308B00562963000D
:04400E00F22C000789
:00000001FF
;PIC16F887
;CRC=FA55  CREATED="16-Ara-24 13:21"
