:1000000000308A003C280000FF00030E8301A1009D
:100010000A08A0008A010408A2007708A300780853
:10002000A4007908A5007A08A600831383128B1E0A
:100030001B280B192C28220884002308F700240809
:10004000F8002508F9002608FA0020088A00210E89
:100050008300FF0E7F0E09008A110A122F28A70ABB
:1000600027082F3C031D372801308606A7010B11F6
:100070000B118A110A121B2803081F398300A701DC
:10008000831603170908C039890003131F129F1232
:1000900000300317880083128701880189018313C8
:1000A000C730831603138105383083128100A030D6
:0C00B0008B000030831686005C28630083
:04400E00F22C000789
:00000001FF
;PIC16F887
;CRC=CD61  CREATED="11-Ara-24 23:23"
