:1000000004308A00A02C0000CC3A74336537A02459
:100010004410CB30723A6900C737733A6539693793
:10002000693D00010A10D6376C3ABD1266105600C1
:10003000423084008313000803192C280130F80093
:10004000F701F70B2128F80B20284A30F700F70BAF
:1000500027282A28800B1E280800490EF039F700AF
:100060000F300805770488000000081437280810AE
:1000700008000808F700080E0F39F800080083167A
:10008000081088100811831288100F308316080595
:10009000F038880083120815000008140000392089
:1000A0007808C900081000000814000039207808FA
:1000B000C80008100F308316080588008312490E07
:1000C000F700F030F70577084804F8007808C80012
:1000D000C81B4528461C88104618881400000811C3
:1000E00000000810470EC8000F30C8054808C900B6
:1000F0002D2047080F39C800C9002D2008002830DE
:10010000B5000C30B6000130B7000630B80008105A
:10011000881008110F308316080588000810881011
:1001200008110F308312C20018200130B4003408C7
:10013000033C031CA3280330C9002D200530C20056
:100140001820B40A97280230C9002D200530C200BB
:100150001820B4013408033C031CBA283530340796
:10016000840083130008B900C6013908C7003F2086
:10017000B40AAA288A110A12CF2C430BC028C3281C
:100180004030C400C428C40101304202C4074408FE
:100190008038C500C6014508C7003F200800410857
:1001A000073A0319DD280B3A0319E228063A031926
:1001B000EA28023A0319F028F5280130C200C300EA
:1001C000BD20FA28C6010130C7003F200230C2001E
:1001D0001820FA280130C2000230C300BD20FA28DE
:1001E000C6011030C7003F20FA280130C600410880
:1001F000C7003F2008000B08B4008B1383160317B9
:100200008C170C140000000083120313B41B8B170F
:1002100003170C087F3903194F290313B400031780
:100220000D080313B50003170F080313B6003408B5
:10023000C100CF20350803178D00031336080317BC
:100240008F0003130B08B7008B13831603178C174B
:100250000C140000000083120313B71B8B17031745
:100260000C0D0E0D7F3903194F290313B40003172A
:100270000D080313B50003170F080313B600340865
:10028000C100CF20350803178D000313360803176C
:100290008F008D0A03198F0A0313FB28031703131A
:1002A00008008E30F7003508F8003408F900FA012C
:1002B000F808031D65297908F800F9010830F702EC
:1002C000F808031D6529F7016D290310F81B6C2937
:1002D000F90DF80DF7036529F8138A110A12052D97
:1002E00034080319352AC00038080319352AC0021A
:1002F000031C7F297F30C0070318352A85298130E8
:10030000C002031C352A0319352A4008F700F801FA
:10031000F901FA01BF013508BE00BE173608BD005D
:100320003708BC001930C0003B08BC020318A829DC
:100330000130BD020318A829BE020318A829BF0274
:100340000318A829BF0ABE0ABD0A3B08BC07DA2960
:100350003A08BD020318C3290130BE020318C3299D
:10036000BF020318C329BF0ABE0A3A08BD073B08EB
:10037000BC07031CDA29BD0A031DDA29BE0A031DC6
:10038000DA29BF0ADA2939088038BE020318D929C8
:100390000130BF020318D929BF0A39088038BE07C7
:1003A0003A08BD07031CB729BE0A031DB729BF0AB7
:1003B000B7297A14C00BDD29E8290310BC0DBD0D47
:1003C000BE0DBF0D0310FA0DF90DF80DC10D9429E6
:1003D000411CF0290310F80CF90CFA0CC10CF3299C
:1003E000F7030319352AC11B1C2A0310BC0DBD0DD0
:1003F000BE0DBF0D3B08BC020318082A0130BD0228
:100400000318082ABE020318082ABF02031C2B2A5D
:100410003A08BD020318132A0130BE020318132A3A
:10042000BF02031C2B2A39088038BE0203181C2A7D
:100430000130BF02031C2B2AFA0A031D2B2AF90ADA
:10044000031D2B2AF80A031D2B2AF70A0319352A44
:10045000F80CF90CFA0C3508C0003908C006C01FAA
:10046000332AF817392AF813392AF701F801F90164
:10047000FA018A110A12132D41080319AC2AC90086
:1004800045080319AC2AC90703184D2A7F30C90251
:10049000031CAC2A0319AC2A512A8130C90703185E
:1004A000AC2A4908F700F801F901FA014208CD0029
:1004B000CD174308CC004408CB001830C900CA014E
:1004C0004B1C7A2A4808FA07031C6C2AF90A031DF8
:1004D0006C2AF80A0319CA174708F907031C732A7C
:1004E000F80A0319CA174608C300C3174308F807D8
:1004F0000318CA17CA0DF80CF90CFA0CCD0CCC0C69
:10050000CB0C0310C90B5F2A0130F7070318AC2A84
:10051000F81B912ACD0DFA0DF90DF80DF70303190B
:10052000AC2ACD1FA22AFA0A031DA22AF90A031D2A
:10053000A22AF80A031DA22AF80CF90CFA0CF70AF1
:100540000319AC2A4208CA004608CA06CA1FAA2ACA
:10055000F817B02AF813B02AF701F801F901FA01E7
:100560000800BC010408BB003C10831B3C14350E82
:10057000F038B700B707E23EB800323EBA0035089F
:100580000F39B807B807BA07E93EB900B907B90784
:10059000340E0F39B907BA07B90DBA0DBA09BA0D39
:1005A00034080F39BA07B70D0730B6000A30BA075A
:1005B000B903031CD72AB907B803031CDB2AB80701
:1005C000B703031CDF2AB707B603031CE32A363040
:1005D0008400831307303B053B1384073A30040241
:1005E00003193B170008F700031DFE2A3B1BFE2AD8
:1005F0003B1A102BBB19FE2A2030012BBB153B12D6
:100600003030F707B5010408B4003510831B3514EA
:100610007708C100CF20340884008313351883176E
:10062000840A3B1FEE2A8A110A123C2D0B08B500E2
:100630008B13831603178C170C1400000000831211
:100640000313B51B8B1703184D2B03170C087F39A9
:100650000313B50003170D080313B60003170F08A3
:100660000313B7003508C100CF20360803178D00EB
:100670000313370803178F0003130B08B8008B13FD
:10068000831603178C170C14000000008312031349
:10069000B81B8B17B40B4D2B6C2B03170C0D0E0DC9
:1006A0007F390313B50003170D080313B6000317B2
:1006B0000F080313B7003508C100CF203608031711
:1006C0008D000313370803178F008D0A03198F0A53
:1006D00003100313B40B162B8A110A12462D83182C
:1006E000742B493084008313F701F801F901FA01F2
:1006F000C901CA01CB01CC0148084704460445049E
:100700000319B22B2030CD000310C10DC20DC30D53
:10071000C40DC90DCA0DCB0DCC0D48084C02031DEC
:100720009B2B47084B02031D9B2B46084A02031DC7
:100730009B2B45084902031CAC2B4508C9024608FF
:10074000031C460FCA024708031C470FCB02480888
:10075000031C480FCC020314F70DF80DF90DFA0D28
:10076000CD0B842B49088000840A4A088000840A43
:100770004B088000840A4C08800008000408B90077
:100780003808BB000319DD2B3708C4003608C30046
:100790003508C2003408C100C801C7012030C600B6
:1007A0008230C5003C227A08B7007908B600780884
:1007B000B5007708B400BB0BC42B3708C40036085B
:1007C000C3003508C2003408C1004108B63CC1006E
:1007D000FA014208C500C2170310C20CC30CC40CB6
:1007E000FA0CF90CF80CF70CC10BEC2BC51F032C01
:1007F000F709F809F909FA09F70A0319F80A0319B8
:10080000F90A0319FA0A7A08B7007908B6007808D5
:10081000B5007708B400B71F1A2CB903B916B4098C
:10082000B509B609B709B40A0319B50A0319B60A16
:100830000319B70A3B30C0009A30BF00CA30BE006F
:10084000BD010A30BB0038080319B90A83143430DB
:10085000840083133708C4003608C3003508C2007B
:100860003408C1004008C8003F08C7003E08C60061
:100870003D08C5006F237808F708031D522C380A7D
:100880003B020319522C39080319542C0F393B022F
:1008900003194C2C0318842CB91B842C391B542CA1
:1008A0002030802C2030B905B91E622CB9123808CE
:1008B000031DB9037708B9002D30C100CF203908D6
:1008C000F700B90138083B02031D702C7708B90006
:1008D0002E30C100CF203908F7002030B905003094
:1008E0003030B91E802CB9123808031DB9037708BF
:1008F000B9002D30C100CF203908F700B9013030E0
:10090000F7077708C100CF2083104008C4003F08D4
:10091000C3003E08C2003D08C100C801C701C601AE
:100920000A30C5006F237A08C0007908BF00780834
:10093000BE007708BD00BB0B262C8A110A12532D6E
:1009400003081F398300B301B20183160317090896
:10095000C039890003131F129F120030031788004B
:1009600083128701880189018313073083160313DB
:10097000850083121F139F1783169F1783121F145E
:10098000831603170908C0391F38890003131F1283
:100990009F12FF3003178800831203137F2804304F
:1009A00003178D0000308F000313FB200430C200BA
:1009B0000230C300BD200C3003178D0000308F00C3
:1009C0000313FB200430B400FA30C2001820B40B2B
:1009D000E42C0C30C100CF200030F8001F08C339D0
:1009E00078049F000630F700F70BF42C00009F14EA
:1009F0009F18F82C83161E088312A0001E08A10061
:100A00002108B5002008B40051297A08B7007908F8
:100A1000B6007808B5007708B400BB01BA01B90187
:100A20008930B80070297A08B7007908B6007808CC
:100A3000B5007708B4007A08C4007908C3007808C4
:100A4000C2007708C100C801C7012030C60081304C
:100A5000C5003C227A08A9007908A8007808A700F8
:100A60007708A6000C30C100CF2010308400210888
:100A7000B5002008B400B12A123003178D000030F1
:100A80008F00031007300313B400162B8930840045
:100A90002908B7002808B6002708B5002608B400C2
:100AA0000230B800BE2B2030C100CF205630C1002C
:100AB000CF200430B400FA30C2001820B40B5B2DF4
:040AC000EC2C6300B7
:04400E00F22C000789
:00000001FF
;PIC16F887
;CRC=6C3C  CREATED="19-Ara-24 11:03"
