:1000000005308A00C32D0000A02B3A102532202A8B
:100010004C0020283A102532202A4C004F386539F0
:10002000E139F9376E10D337EE3A0000C939EC32B6
:100030006D3665396937693D0001CB3079326532FB
:100040006936E93C6F390001CB30F93474366139D7
:100050000001D430ED306D366137E43400014137B2
:100060006110CD32EE3AF9320001D9376E3665377C
:10007000E434F234EC34F9377200453084008313F1
:100080000008031951280130F800F701F70B462842
:10009000F80B45284A30F700F70B4C284F28800B07
:1000A000432808004C0EF039F7000F30080577049C
:1000B0008800000008145C28081008000808F700F1
:1000C000080E0F39F8000800831608108810081170
:1000D000831288100F3083160805F03888008312C9
:1000E00008150000081400005E207808CC000810F5
:1000F0000000081400005E207808CB0008100F30C4
:1001000083160805880083124C0EF700F030F705BF
:1001100077084B04F8007808CB00CB1B6A28491CF1
:1001200088104918881400000811000008104A0EB1
:10013000CB000F30CB054B08CC0052204A080F39BA
:10014000CB00CC00522008002830BF000C30C0008B
:100150000130C1000630C2000810881008110F30AD
:100160008316080588000810881008110F308312C4
:10017000C5003D200130BE003E08033C031CC828DA
:100180000330CC0052200530C5003D20BE0ABC28FB
:100190000230CC0052200530C5003D20BE013E0893
:1001A000033C031CDF283F303E0784008313000814
:1001B000C300C9014308CA006420BE0ACF288A11BF
:1001C0000A12E72D460BE528E8284030C700E92849
:1001D000C70101304502C70747088038C800C90178
:1001E0004808CA00642008004408073A0319022995
:1001F0000B3A03190729063A03190F29023A031982
:1002000015291A290130C500C600E2201F29C9019D
:100210000130CA0064200230C5003D201F29013092
:10022000C5000230C600E2201F29C9011030CA00F3
:1002300064201F290130C9004408CA006420080056
:100240000B08BE008B13831603178C170C140000C9
:10025000000083120313BE1B8B1703170C087F3992
:10026000031974290313BE0003170D080313BF00FD
:1002700003170F080313C0003E08C400F4203F0812
:1002800003178D000313400803178F0003130B0897
:10029000C1008B13831603178C170C140000000089
:1002A00083120313C11B8B1703170C0D0E0D7F391F
:1002B000031974290313BE0003170D080313BF00AD
:1002C00003170F080313C0003E08C400F4203F08C2
:1002D00003178D000313400803178F008D0A0319BD
:1002E0008F0A03132029031703130800F801F901EB
:1002F000F701FA014308031D8029420803199A29CE
:100300001030C4000310C00DC10DF70DFA0D4308E5
:100310007A02031D8D2942087702031C96294208A0
:10032000F702031CFA034308FA020314F80DF90D4F
:10033000C40B822908000230C5000130C600E2204B
:100340000E3003178D0000308F000313202108307A
:10035000BE00FA30C5003D20BE0BA9290C30C400F8
:10036000F4200330C5000130C600E2201630031728
:100370008D0000308F00031320210330C5000230B0
:10038000C600E2201D3003178D0000308F000313DC
:100390002021300DF700F70DF70DF830F70577083D
:1003A000203E84008313840A0008BF0084030008F1
:1003B000BE003F08C1003E08C000C3010A30C200B1
:1003C00076217908BF000310780DF9003F0DFA007F
:1003D0007908B100300DF700F70DF70DF830F7058B
:1003E0007708023E203E84008313840A0008BF0081
:1003F00084030008BE003F08C1003E08C000C301DE
:100400000A30C20076217908BF000310780DF90088
:100410003F0DFA007908B200300DF700F70DF70D27
:10042000F830F7057708043E203E84008313840AE1
:100430000008BF0084030008BE003F08C1003E085A
:10044000C000C3010A30C20076217908BF00031042
:10045000780DF9003F0DFA007908B300300DF70070
:10046000F70DF70DF830F7057708063E203E8400BB
:100470008313840A0008BF0084030008BE003F08FD
:10048000C1003E08C000C3010F30C2001030C400DC
:10049000F701FA01C10CC00C031C542A4208F707EB
:1004A0000318FA0A4308FA07FA0CF70CF90CF80CCF
:1004B000C40B4A2A7808B400B008031DF42A0317B5
:1004C0008D0183168C130C1483120C080313B900CE
:1004D00005303907BE000B08F7008B133E080317E1
:1004E0008D000313310803178C0083168C130C1531
:1004F00055308D00AA308D008C148C187D2A0C117B
:100500007708831203138B04B90A05303907BE003C
:100510000B08F7008B133E0803178D0003133208F6
:1005200003178C0083168C130C1555308D00AA30E0
:100530008D008C148C189A2A0C11770883120313DF
:100540008B04B90A05303907BE000B08F7008B137E
:100550003E0803178D000313330803178C0083161E
:100560008C130C1555308D00AA308D008C148C180E
:10057000B72A0C117708831203138B04B90A0530CC
:100580003907BE000B08F7008B133E0803178D00D8
:100590000313340803178C0083168C130C15553085
:1005A0008D00AA308D008C148C18D42A0C11770879
:1005B000831203138B04B90A0B08F7008B1303177C
:1005C0008D010313390803178C0083168C130C1547
:1005D00055308D00AA308D008C148C18ED2A0C112A
:1005E0007708831203138B04300B912B823003178F
:1005F0008D0083168C130C1483120C080313BA009D
:1006000082303A07013EBE000B08F7008B133E080C
:1006100003178D000313310803178C0083168C1306
:100620000C1555308D00AA308D008C148C18162BAB
:100630000C117708831203138B04BA0A82303A072D
:10064000013EBE000B08F7008B133E0803178D0018
:100650000313320803178C0083168C130C155530C6
:100660008D00AA308D008C148C18342B0C11770857
:10067000831203138B04BA0A82303A07013EBE008C
:100680000B08F7008B133E0803178D000313330884
:1006900003178C0083168C130C1555308D00AA306F
:1006A0008D008C148C18522B0C11770883120313B5
:1006B0008B04BA0A82303A07013EBE000B08F700ED
:1006C0008B133E0803178D000313340803178C00A7
:1006D00083168C130C1555308D00AA308D008C14A8
:1006E0008C18702B0C117708831203138B04BA0A31
:1006F0000B08F7008B13823003178D0003133A08A1
:1007000003178C0083168C130C1555308D00AA30FE
:100710008D008C148C188A2B0C117708831203130C
:100720008B040430BE00FA30C5003D20BE0B932B75
:100730000C30C400F4200530C5000130C600E220B2
:10074000243003178D0000308F0003132021043064
:10075000C5000230C600E220293003178D000030AA
:100760008F00031320210430BE00FA30C5003D2065
:10077000BE0BB52B0C30C400F4200430C500013092
:10078000C600E2202F3003178D0000308F000313C6
:1007900020210230C500C600E220353003178D004D
:1007A00000308F00031320210430BE00FA30C50052
:1007B0003D20BE0BD62B0C30C400F4208A110A1247
:1007C000272E4508F80144020318E92B4408F700D6
:1007D000F52BF7010830C600C40DF70D4508770268
:1007E0000318F700F80DC60BEC2B080020303F1E55
:1007F0003030C0003E08F700BE1F062CF709F70A8C
:100800007708BE002D30C000BF173F143E08C4005B
:100810006430C500E1237708BE0030307807C1009E
:100820003E08C4000A30C500E12330307707C3001A
:1008300030307807C2004008F70030304102031919
:10084000252CBF14BF1B3F15392C4008C100203098
:10085000C000303042020319312C3F14BF1BBF14BB
:10086000392C031D3F14031D392C4108C2002030D0
:10087000C1003F19402CBF18432C3F18462C492C6F
:100880004008C400F4204108C400F4204208C40019
:10089000F4204308C400F42008000B08BF008B13A9
:1008A000831603178C170C14000000008312031327
:1008B000BF1B8B170318842C03170C087F390313F5
:1008C000BF0003170D080313C00003170F0803131D
:1008D000C1003F08C400F420400803178D00031333
:1008E000410803178F0003130B08C2008B138316F4
:1008F00003178C170C140000000083120313C21B93
:100900008B17BE0B842CA32C03170C0D0E0D7F39F7
:100910000313BF0003170D080313C00003170F08CC
:100920000313C1003F08C400F420400803178D00E2
:100930000313410803178F008D0A03198F0A031050
:100940000313BE0B4D2C0800B008031DF72C01301B
:100950003B02F700F70DF70DFC30F7057708043E72
:10096000BE003E0803178D0083168C130C148312EF
:100970000C080313B50001303B02F700F70DF70D2B
:10098000FC30F7057708053EBE003E0803178D00D2
:1009900083168C130C1483120C080313B600013059
:1009A0003B02F700F70DF70DFC30F7057708063E20
:1009B000BE003E0803178D0083168C130C1483129F
:1009C0000C080313B70001303B02F700F70DF70DD9
:1009D000FC30F7057708073EBE003E0803178D0080
:1009E00083168C130C1483120C080313B800300BFD
:1009F0004D2D01303B02F700F70DF70DFC30F705E8
:100A00007708013E823EBE003E0803178D00831624
:100A10008C130C1483120C080313B50001303B0235
:100A2000F700F70DF70DFC30F7057708023E823E20
:100A3000BE003E0803178D0083168C130C1483121E
:100A40000C080313B60001303B02F700F70DF70D59
:100A5000FC30F7057708033E823EBE003E080317D0
:100A60008D0083168C130C1483120C080313B7002B
:100A700001303B02F700F70DF70DFC30F705770862
:100A8000043E823EBE003E0803178D0083168C1381
:100A90000C1483120C080313B8000C30C400F420AB
:100AA0000130C500C600E2204630C400F4203A30D0
:100AB000C400F4202030C400F4203508BE001830F3
:100AC000BF00F6232030C400F4205430C400F420CA
:100AD0004C30C400F4200830C5000130C600E220CC
:100AE000043003178D0000308F000310043003130F
:100AF000BE004D243608BE001830BF00F62320305B
:100B0000C400F4205430C400F4204C30C400F4205D
:100B10000130C5000230C600E2205630C400F42087
:100B20003A30C400F4202030C400F4203708BE005E
:100B30001830BF00F6232030C400F4205430C40025
:100B4000F4204C30C400F4200830C500C600E22078
:100B5000093003178D0000308F0003100430031399
:100B6000BE004D243808BE001830BF00F6232030E8
:100B7000C400F4205430C400F4204C30C400F420ED
:100B80008A110A12282E03081F398300B001B1010F
:100B9000B201B301B401B501B601B701B801B901A1
:100BA000BA010230BB00BD01BC018316031709085E
:100BB000C039890003131F129F12003003178800E9
:100BC000831287018801890183130313A428300D40
:100BD000F700F70DF70DF830F7057708203E840091
:100BE0008313840A800184033C308000300DF700B9
:100BF000F70DF70DF830F7057708023E203E840028
:100C00008313840A8001840346308000300DF7008E
:100C1000F70DF70DF830F7057708043E203E840005
:100C20008313840A8001840350308000300DF70064
:100C3000F70DF70DF830F7057708063E203E8400E3
:100C40008313840A80018403013080009B29A42C33
:040C5000282E6300E7
:04400E00F22C000789
:00000001FF
;PIC16F887
;CRC=B1ED  CREATED="30-Ara-24 19:22"
